{
  "transactions": [
    {
      "hash": "0xcdd6ef0b6636540492273a97427045e5ec03d1eb6b9b0b4a5d172a1a76fad743",
      "transactionType": "CALL",
      "contractName": null,
      "contractAddress": "0x911fc47ec8352c73a671dcd33778b184eaaa86df",
      "function": "mintNFT(address,string)",
      "arguments": [
        "0x9b7859fff43CE6Db839D62528bfeA210dF52C7C2",
        "ipfs://bafkreidy2bxzu7nzk2phsfindnbfkufz3gbgojl4ja6wndbdc32gbclcka"
      ],
      "transaction": {
        "from": "0x9b7859fff43ce6db839d62528bfea210df52c7c2",
        "to": "0x911fc47ec8352c73a671dcd33778b184eaaa86df",
        "value": "0x0",
        "input": "0xeacabe140000000000000000000000009b7859fff43ce6db839d62528bfea210df52c7c200000000000000000000000000000000000000000000000000000000000000400000000000000000000000000000000000000000000000000000000000000042697066733a2f2f6261666b72656964793262787a75376e7a6b3270687366696e646e62666b75667a336762676f6a6c346a6136776e6462646333326762636c636b61000000000000000000000000000000000000000000000000000000000000",
        "nonce": "0x7",
        "chainId": "0xaa36a7"
      },
      "additionalContracts": [],
      "isFixedGasLimit": false
    },
    {
      "hash": "0xe7c17ac3ff30d1bce5a01f84d17399f397a9033046f9898d61be3412aae964a9",
      "transactionType": "CALL",
      "contractName": null,
      "contractAddress": "0x911fc47ec8352c73a671dcd33778b184eaaa86df",
      "function": "mintNFT(address,string)",
      "arguments": [
        "0x9b7859fff43CE6Db839D62528bfeA210dF52C7C2",
        "ipfs://bafkreicmqyukiy7qd5ee6pypsmhde52j7awyu7q7qyhlbu7chhx7fpct5m"
      ],
      "transaction": {
        "from": "0x9b7859fff43ce6db839d62528bfea210df52c7c2",
        "to": "0x911fc47ec8352c73a671dcd33778b184eaaa86df",
        "value": "0x0",
        "input": "0xeacabe140000000000000000000000009b7859fff43ce6db839d62528bfea210df52c7c200000000000000000000000000000000000000000000000000000000000000400000000000000000000000000000000000000000000000000000000000000042697066733a2f2f6261666b726569636d7179756b697937716435656536707970736d68646535326a37617779753771377179686c627537636868783766706374356d000000000000000000000000000000000000000000000000000000000000",
        "nonce": "0x8",
        "chainId": "0xaa36a7"
      },
      "additionalContracts": [],
      "isFixedGasLimit": false
    }
  ],
  "receipts": [
    {
      "status": "0x1",
      "cumulativeGasUsed": "0x6f3677",
      "logs": [
        {
          "address": "0x911fc47ec8352c73a671dcd33778b184eaaa86df",
          "topics": [
            "0xddf252ad1be2c89b69c2b068fc378daa952ba7f163c4a11628f55a4df523b3ef",
            "0x0000000000000000000000000000000000000000000000000000000000000000",
            "0x0000000000000000000000009b7859fff43ce6db839d62528bfea210df52c7c2",
            "0x0000000000000000000000000000000000000000000000000000000000000001"
          ],
          "data": "0x",
          "blockHash": "0xdc3050746a6f5e4b41eb3dc96fba31961dd8802b3920d725d1c196d7c70301b4",
          "blockNumber": "0x8e2a95",
          "blockTimestamp": "0x68dca1ac",
          "transactionHash": "0xcdd6ef0b6636540492273a97427045e5ec03d1eb6b9b0b4a5d172a1a76fad743",
          "transactionIndex": "0x4a",
          "logIndex": "0x64",
          "removed": false
        },
        {
          "address": "0x911fc47ec8352c73a671dcd33778b184eaaa86df",
          "topics": [
            "0xf8e1a15aba9398e019f0b49df1a4fde98ee17ae345cb5f6b5e2c27f5033e8ce7"
          ],
          "data": "0x0000000000000000000000000000000000000000000000000000000000000001",
          "blockHash": "0xdc3050746a6f5e4b41eb3dc96fba31961dd8802b3920d725d1c196d7c70301b4",
          "blockNumber": "0x8e2a95",
          "blockTimestamp": "0x68dca1ac",
          "transactionHash": "0xcdd6ef0b6636540492273a97427045e5ec03d1eb6b9b0b4a5d172a1a76fad743",
          "transactionIndex": "0x4a",
          "logIndex": "0x65",
          "removed": false
        }
      ],
      "logsBloom": "0x08000000000000000000000000000000000000000000000000000000000010000000000000000000000000000000000000000000000000000100000000040000000000000000000000000008000000000000000000040000000000000000000000000000020000000000000000000800000000000000000000000010000000000000000000000000000000000000000000000000000000000000000000000000000000000000000000004000000000002000000000000000000000000000008000002002200000000000000000000000000000000000000000000000000060000000000000000000200000000000000000000000000000000000000000000000",
      "type": "0x2",
      "transactionHash": "0xcdd6ef0b6636540492273a97427045e5ec03d1eb6b9b0b4a5d172a1a76fad743",
      "transactionIndex": "0x4a",
      "blockHash": "0xdc3050746a6f5e4b41eb3dc96fba31961dd8802b3920d725d1c196d7c70301b4",
      "blockNumber": "0x8e2a95",
      "gasUsed": "0x2d996",
      "effectiveGasPrice": "0xf425f",
      "from": "0x9b7859fff43ce6db839d62528bfea210df52c7c2",
      "to": "0x911fc47ec8352c73a671dcd33778b184eaaa86df",
      "contractAddress": null
    },
    {
      "status": "0x1",
      "cumulativeGasUsed": "0x798a0f",
      "logs": [
        {
          "address": "0x911fc47ec8352c73a671dcd33778b184eaaa86df",
          "topics": [
            "0xddf252ad1be2c89b69c2b068fc378daa952ba7f163c4a11628f55a4df523b3ef",
            "0x0000000000000000000000000000000000000000000000000000000000000000",
            "0x0000000000000000000000009b7859fff43ce6db839d62528bfea210df52c7c2",
            "0x0000000000000000000000000000000000000000000000000000000000000002"
          ],
          "data": "0x",
          "blockHash": "0xb5fa260da8d3ab102124d83d039e154c0ddc82d53dc232f072d7d50bbdd37f0f",
          "blockNumber": "0x8e2a96",
          "blockTimestamp": "0x68dca1b8",
          "transactionHash": "0xe7c17ac3ff30d1bce5a01f84d17399f397a9033046f9898d61be3412aae964a9",
          "transactionIndex": "0x60",
          "logIndex": "0x68",
          "removed": false
        },
        {
          "address": "0x911fc47ec8352c73a671dcd33778b184eaaa86df",
          "topics": [
            "0xf8e1a15aba9398e019f0b49df1a4fde98ee17ae345cb5f6b5e2c27f5033e8ce7"
          ],
          "data": "0x0000000000000000000000000000000000000000000000000000000000000002",
          "blockHash": "0xb5fa260da8d3ab102124d83d039e154c0ddc82d53dc232f072d7d50bbdd37f0f",
          "blockNumber": "0x8e2a96",
          "blockTimestamp": "0x68dca1b8",
          "transactionHash": "0xe7c17ac3ff30d1bce5a01f84d17399f397a9033046f9898d61be3412aae964a9",
          "transactionIndex": "0x60",
          "logIndex": "0x69",
          "removed": false
        }
      ],
      "logsBloom": "0x0c000000000000000000000000000000000000000000000000000000000010000000000000000000000000000000000000000000000000000100000000000000000000000000000000000008000000000000000000000000000000000000000000000000020000000000000000000800000000000000000000000010000000000000000000000000000000000000000000000000000000000000000000000000000000000000000000004100000000002000000000000000000000000000008000002002200000000000000000000000000000000000000000000000000020000000000000000000200000000000000000000000008000000000000000000000",
      "type": "0x2",
      "transactionHash": "0xe7c17ac3ff30d1bce5a01f84d17399f397a9033046f9898d61be3412aae964a9",
      "transactionIndex": "0x60",
      "blockHash": "0xb5fa260da8d3ab102124d83d039e154c0ddc82d53dc232f072d7d50bbdd37f0f",
      "blockNumber": "0x8e2a96",
      "gasUsed": "0x253fe",
      "effectiveGasPrice": "0xf425f",
      "from": "0x9b7859fff43ce6db839d62528bfea210df52c7c2",
      "to": "0x911fc47ec8352c73a671dcd33778b184eaaa86df",
      "contractAddress": null
    }
  ],
  "libraries": [],
  "pending": [],
  "returns": {},
  "timestamp": 1759289785898,
  "chain": 11155111,
  "commit": null
}